:100000000C9434000C943E000C943E000C943E0082
:100010000C943E000C943E000C943E000C943E0068
:100020000C943E000C943E000C943E000C943E0058
:100030000C943E000C943E000C943E000C943E0048
:100040000C943E000C943E000C943E000C943E0038
:100050000C943E000C943E000C943E000C943E0028
:100060000C943E000C943E0011241FBECFEFD8E04C
:10007000DEBFCDBF0E94B5010C9422040C94000099
:10008000CF93DF93CDB7DEB7A2970FB6F894DEBF5C
:100090000FBECDBF8AA383E290E0FC018081882F50
:1000A00090E082709927009751F085E290E025E278
:1000B00030E0F90120812B7FFC01208309C085E21B
:1000C00090E025E230E0F90120812460FC012083EA
:1000D0008EE490E02AA1FC01208300008DE490E0F2
:1000E000FC0180818823D4F78EE490E0FC018081BC
:1000F000898380E090E0A0E8BFE38A839B83AC83A0
:10010000BD832BEA3AEA4AEA5EE36A817B818C810D
:100110009D810E94BF03DC01CB018E839F83A88752
:10012000B98720E030E040E85EE36A817B818C8122
:100130009D810E94BF03DC01CB018A879B87AC872E
:10014000BD8720E030E040E85FE36E817F818885F5
:1001500099850E94AE0288231CF481E08E87B2C08C
:1001600020E03FEF4FE757E46A857B858C859D85CE
:100170000E94BB0318160CF07BC020E030E04AE779
:1001800054E46A817B818C819D810E94B202DC01F2
:10019000CB018F87988BA98BBA8B20E030E04AE7A0
:1001A00053E46F85788989899A890E94BF03DC01AD
:1001B000CB018B8B9C8BAD8BBE8B20E030E040E87D
:1001C0005FE36B897C898D899E890E94AE028823BA
:1001D0002CF481E090E0988F8F8B3FC020E03FEFC0
:1001E0004FE757E46B897C898D899E890E94BB0308
:1001F00018164CF520E030E040E251E46F85788934
:1002000089899A890E94BF03DC01CB01BC01CD0121
:100210000E941A03DC01CB01988F8F8B0FC089E1FC
:1002200090E09A8F898F898D9A8D0197F1F79A8F37
:10023000898F8F89988D0197988F8F8B8F89988D53
:10024000009769F73FC06B897C898D899E890E94E0
:100250001A03DC01CB01988F8F8B8F89988D9C8F2F
:100260008B8F8B8D9C8D0197F1F79C8F8B8F2AC084
:1002700020E030E04FE753E46E817F8188859985E7
:100280000E94BB031816ACF46A857B858C859D851E
:100290000E941A03DC01CB019E8F8D8F8D8D9E8D68
:1002A00098A38F8F8F8D98A10197F1F798A38F8FC7
:1002B0000FC06E817F81888599850E941A03DC01B9
:1002C000CB018E878E8589A389A18A95F1F789A3B1
:1002D0008981A2960FB6F894DEBF0FBECDBFDF9125
:1002E000CF910895CF93DF9300D000D0CDB7DEB784
:1002F0008AE790E02AE730E0F90120812064FC01E0
:10030000208300008AE790E0FC018081882F90E044
:10031000807499270097B1F788E790E0FC0180810D
:100320008295869586958370882F90E09A8389833D
:1003300089E790E0FC018081882F90E0880F991F69
:10034000880F991F9C838B8329813A818B819C81A3
:10035000822B932B9A83898389819A810F900F90A6
:100360000F900F90DF91CF910895CF93DF93CDB78A
:10037000DEB727970FB6F894DEBF0FBECDBF84E27D
:1003800090E024E230E0F90120812C62FC0120831E
:1003900087E290E0FC0110828AE290E020EEFC010E
:1003A00020838BE290E020EEFC0120838CE490E03F
:1003B0002CE430E0F90120812365FC0120838DE4E9
:1003C00090E021E0FC01208385E290E025E230E02E
:1003D000F90120812260FC0120838AE790E0FC0182
:1003E00010828CE790E020E7FC0120838AE790E010
:1003F00027E8FC01208319821B821A8214C00E9404
:1004000072019F838E838E819F819D7F9F838E83C8
:100410002A813B818E819F81820F931F9B838A83D8
:1004200089818F5F8983898180344CF38A819B81A4
:100430000024880F991F001C880F991F001C892F0A
:10044000902D9B838A8383E290E0FC018081882F3A
:1004500090E082709927009709F444C08CE490E002
:100460002CE430E0F9012081277FFC0120838CE41B
:1004700090E02CE430E0F90120812B7FFC01208307
:100480008CE490E02CE430E0F90120812062FC0152
:1004900020838A819B81880F991F880F991F9F73E2
:1004A0009B838A838A819B810E94400085E290E041
:1004B00025E230E0F90120812460FC0120838A815B
:1004C0009B81906C9B838A838A819B810E944000E0
:1004D00085E290E025E230E0F90120812460FC0112
:1004E000208389CF8CE490E02CE430E0F901208176
:1004F0002860FC0120838CE490E02CE430E0F901DA
:1005000020812460FC0120838CE490E02CE430E026
:10051000F90120812F7DFC0120838A819B81892F15
:1005200099279D838C838C819D810E94400085E268
:1005300090E025E230E0F90120812B7FFC0120834F
:100540008A819B810E94400085E290E025E230E0B4
:10055000F90120812B7FFC0120834DCF97D008F437
:1005600081E008950CD0CDC0C5D040F0BCD030F0B3
:1005700021F45F3F19F0AEC05111F7C0B1C0D2D025
:1005800098F39923C9F35523B1F3951B550BBB275A
:10059000AA2762177307840738F09F5F5F4F220F07
:1005A000331F441FAA1FA9F333D00E2E3AF0E0E800
:1005B00030D091505040E695001CCAF729D0FE2F4C
:1005C00027D0660F771F881FBB1F261737074807DE
:1005D000AB07B0E809F0BB0B802DBF01FF27935894
:1005E0005F4F2AF09E3F510568F074C0BEC05F3F68
:1005F000ECF3983EDCF3869577956795B795F7957C
:100600009F5FC9F7880F911D9695879597F9089573
:10061000E1E0660F771F881FBB1F6217730784070F
:10062000BA0720F0621B730B840BBA0BEE1F88F71E
:10063000E09508957FD088F09F5790F0B92F9927C3
:10064000B751A0F0D1F0660F771F881F991F1AF0DD
:10065000BA95C9F712C0B13081F086D0B1E00895E3
:1006600083C0672F782F8827B85F39F0B93FCCF364
:10067000869577956795B395D9F73EF490958095D3
:10068000709561957F4F8F4F9F4F0895990F000888
:10069000550FAA0BE0E8FEEF16161706E807F90754
:1006A000C0F012161306E407F50798F0621B730BEF
:1006B000840B950B39F40A2661F0232B242B252B70
:1006C00021F408950A2609F4A140A6958FEF811D13
:1006D000811D089597F99F6780E870E060E00895B4
:1006E0009FEF80EC089500240A941616170618064A
:1006F0000906089500240A94121613061406050626
:100700000895092E0394000C11F4882352F0BB0FB6
:1007100040F4BF2B11F460FF04C06F5F7F4F8F4F19
:100720009F4F089557FD9058440F551F59F05F3F54
:1007300071F04795880F97FB991F61F09F3F79F003
:1007400087950895121613061406551FF2CF469585
:10075000F1DF08C0161617061806991FF1CF869507
:100760007105610508940895E894BB2766277727EB
:10077000CB0197F908958ADF08F48FEF08950BD025
:10078000C0CFB1DF28F0B6DF18F0952309F0A2CF73
:10079000A7CF1124EACFC6DFA0F3959FD1F3950F21
:1007A00050E0551F629FF001729FBB27F00DB11DF5
:1007B000639FAA27F00DB11DAA1F649F6627B00D85
:1007C000A11D661F829F2227B00DA11D621F739F6E
:1007D000B00DA11D621F839FA00D611D221F749F7C
:1007E0003327A00D611D231F849F600D211D822FC3
:1007F000762F6A2F11249F5750408AF0E1F088230A
:100800004AF0EE0FFF1FBB1F661F771F881F915016
:100810005040A9F79E3F510570F05CCFA6CF5F3FD7
:10082000ECF3983EDCF3869577956795B795F79549
:10083000E7959F5FC1F7FE2B880F911D96958795D1
:0808400097F90895F894FFCF29
:00000001FF
