S00F000061726475696E6F2E7372656323
S11300000C9434000C9446000C9446000C94460066
S11300100C9446000C9446000C9446000C94460044
S11300200C9446000C9446000C9446000C94460034
S11300300C9446000C9446000C9446000C94460024
S11300400C9446000C9446000C9446000C94460014
S11300500C9446000C9446000C9446000C94460004
S11300600C9446000C94460011241FBECFEFD8E038
S1130070DEBFCDBF21E0A0E0B1E001C01D92A13000
S1130080B207E1F70E946B000C94E6000C940000A8
S1130090199B02C02A9801C02A9A8EBD0DB407FE8E
S11300A0FDCF8EB500000895EAE7F0E0808180641A
S11300B08083808186FDFDCF20917800229526954E
S11300C0269523708091790090E0880F991F880FFE
S11300D0991F822B0895CF93DF9300D000D000D0D6
S11300E0CDB7DEB784B18C6284B917B880EE8AB913
S11300F08BB98CB583658CBD81E08DBD5A9A299AE4
S1130100EAE7F0E0108280E780937C0087E8808350
S1130110E9E6F0E080818D7F808380818260808346
S1130120808181608083E89A78941A82198210E42D
S11301300E9454009E838D838D819E819D7F9E832A
S11301408D8389819A812D813E81820F931F9A83A9
S11301508983115069F789819A810024880F991F36
S1130160001C880F991F001C892F902D9A83898366
S113017080910001811119C089819A81880F991F8A
S1130180880F991F9F739A83898389819A810E941A
S113019048002A9A89819A81906C9A8389838981FB
S11301A09A810E9448002A9AC0CF89819A81892F16
S11301B099279C838B838B819C810E9448002A9879
S11301C089819A810E9448002A98AFCFF894FFCF82
S9030000FC
