S00F000061726475696E6F2E7372656323
S11300000C9434000C943E000C943E000C943E007E
S11300100C943E000C943E000C943E000C943E0064
S11300200C943E000C943E000C943E000C943E0054
S11300300C943E000C943E000C943E000C943E0044
S11300400C943E000C943E000C943E000C943E0034
S11300500C943E000C943E000C943E000C943E0024
S11300600C943E000C943E0011241FBECFEFD8E048
S1130070DEBFCDBF0E9448000C945C000C940000CD
S11300802A988EBD0DB407FEFDCF8EB500000895ED
S113009084B18C6284B917B88CB585658CBD1DBCE0
S11300A0EAE7F0E0108280E380937C0087E88083B5
S10F00B084E50E944000FCCFF894FFCFD0
S9030000FC
